{
  "contractName": "Crowdfunding",
  "abi": [
    {
      "inputs": [
        {
          "internalType": "uint256",
          "name": "",
          "type": "uint256"
        }
      ],
      "name": "campaigns",
      "outputs": [
        {
          "internalType": "uint256",
          "name": "id",
          "type": "uint256"
        },
        {
          "internalType": "address payable",
          "name": "owner",
          "type": "address"
        },
        {
          "internalType": "string",
          "name": "title",
          "type": "string"
        },
        {
          "internalType": "string",
          "name": "description",
          "type": "string"
        },
        {
          "internalType": "uint256",
          "name": "target",
          "type": "uint256"
        },
        {
          "internalType": "uint256",
          "name": "timeLimit",
          "type": "uint256"
        },
        {
          "internalType": "uint256",
          "name": "collected",
          "type": "uint256"
        },
        {
          "internalType": "string",
          "name": "image",
          "type": "string"
        }
      ],
      "stateMutability": "view",
      "type": "function",
      "constant": true
    },
    {
      "inputs": [],
      "name": "numberOfCampaigns",
      "outputs": [
        {
          "internalType": "uint256",
          "name": "",
          "type": "uint256"
        }
      ],
      "stateMutability": "view",
      "type": "function",
      "constant": true
    },
    {
      "inputs": [
        {
          "internalType": "address payable",
          "name": "_owner",
          "type": "address"
        },
        {
          "internalType": "string",
          "name": "_title",
          "type": "string"
        },
        {
          "internalType": "string",
          "name": "_description",
          "type": "string"
        },
        {
          "internalType": "uint256",
          "name": "_target",
          "type": "uint256"
        },
        {
          "internalType": "uint256",
          "name": "_deadline",
          "type": "uint256"
        },
        {
          "internalType": "string",
          "name": "_image",
          "type": "string"
        }
      ],
      "name": "createCampaign",
      "outputs": [
        {
          "internalType": "uint256",
          "name": "",
          "type": "uint256"
        }
      ],
      "stateMutability": "nonpayable",
      "type": "function"
    },
    {
      "inputs": [],
      "name": "totalCompaigns",
      "outputs": [
        {
          "internalType": "uint256",
          "name": "",
          "type": "uint256"
        }
      ],
      "stateMutability": "view",
      "type": "function",
      "constant": true
    },
    {
      "inputs": [
        {
          "internalType": "uint256",
          "name": "_id",
          "type": "uint256"
        }
      ],
      "name": "donateToCampaign",
      "outputs": [],
      "stateMutability": "payable",
      "type": "function",
      "payable": true
    },
    {
      "inputs": [
        {
          "internalType": "uint256",
          "name": "_id",
          "type": "uint256"
        }
      ],
      "name": "getDonators",
      "outputs": [
        {
          "internalType": "address[]",
          "name": "",
          "type": "address[]"
        },
        {
          "internalType": "uint256[]",
          "name": "",
          "type": "uint256[]"
        }
      ],
      "stateMutability": "view",
      "type": "function",
      "constant": true
    },
    {
      "inputs": [],
      "name": "getCampaigns",
      "outputs": [
        {
          "components": [
            {
              "internalType": "uint256",
              "name": "id",
              "type": "uint256"
            },
            {
              "internalType": "address payable",
              "name": "owner",
              "type": "address"
            },
            {
              "internalType": "string",
              "name": "title",
              "type": "string"
            },
            {
              "internalType": "string",
              "name": "description",
              "type": "string"
            },
            {
              "internalType": "uint256",
              "name": "target",
              "type": "uint256"
            },
            {
              "internalType": "uint256",
              "name": "timeLimit",
              "type": "uint256"
            },
            {
              "internalType": "uint256",
              "name": "collected",
              "type": "uint256"
            },
            {
              "internalType": "string",
              "name": "image",
              "type": "string"
            },
            {
              "internalType": "address[]",
              "name": "backers",
              "type": "address[]"
            },
            {
              "internalType": "uint256[]",
              "name": "donations",
              "type": "uint256[]"
            }
          ],
          "internalType": "struct Crowdfunding.Campaign[]",
          "name": "",
          "type": "tuple[]"
        }
      ],
      "stateMutability": "view",
      "type": "function",
      "constant": true
    }
  ],
  "bytecode": "0x6080604052600060015534801561001557600080fd5b50611702806100256000396000f3fe6080604052600436106100705760003560e01c8063141961bc1161004e578063141961bc1461010957806342a4fda81461014d5780639943e3a114610169578063a6b03633146101a657610070565b806307ca140d14610075578063091e3e7d146100a05780630fa91fa9146100cb575b600080fd5b34801561008157600080fd5b5061008a6101d1565b6040516100979190610c2d565b60405180910390f35b3480156100ac57600080fd5b506100b56101d7565b6040516100c29190610c2d565b60405180910390f35b3480156100d757600080fd5b506100f260048036038101906100ed9190610c88565b6101e1565b604051610100929190610e63565b60405180910390f35b34801561011557600080fd5b50610130600480360381019061012b9190610c88565b6102f1565b604051610144989796959493929190610f54565b60405180910390f35b61016760048036038101906101629190610c88565b6104f1565b005b34801561017557600080fd5b50610190600480360381019061018b9190611148565b610627565b60405161019d9190610c2d565b60405180910390f35b3480156101b257600080fd5b506101bb610728565b6040516101c89190611518565b60405180910390f35b60015481565b6000600154905090565b6060806000808481526020019081526020016000206008016000808581526020019081526020016000206009018180548060200260200160405190810160405280929190818152602001828054801561028f57602002820191906000526020600020905b8160009054906101000a900473ffffffffffffffffffffffffffffffffffffffff1673ffffffffffffffffffffffffffffffffffffffff1681526020019060010190808311610245575b50505050509150808054806020026020016040519081016040528092919081815260200182805480156102e157602002820191906000526020600020905b8154815260200190600101908083116102cd575b5050505050905091509150915091565b60006020528060005260406000206000915090508060000154908060010160009054906101000a900473ffffffffffffffffffffffffffffffffffffffff169080600201805461034090611569565b80601f016020809104026020016040519081016040528092919081815260200182805461036c90611569565b80156103b95780601f1061038e576101008083540402835291602001916103b9565b820191906000526020600020905b81548152906001019060200180831161039c57829003601f168201915b5050505050908060030180546103ce90611569565b80601f01602080910402602001604051908101604052809291908181526020018280546103fa90611569565b80156104475780601f1061041c57610100808354040283529160200191610447565b820191906000526020600020905b81548152906001019060200180831161042a57829003601f168201915b50505050509080600401549080600501549080600601549080600701805461046e90611569565b80601f016020809104026020016040519081016040528092919081815260200182805461049a90611569565b80156104e75780601f106104bc576101008083540402835291602001916104e7565b820191906000526020600020905b8154815290600101906020018083116104ca57829003601f168201915b5050505050905088565b60003490506000806000848152602001908152602001600020905080600801339080600181540180825580915050600190039060005260206000200160009091909190916101000a81548173ffffffffffffffffffffffffffffffffffffffff021916908373ffffffffffffffffffffffffffffffffffffffff160217905550806009018290806001815401808255809150506001900390600052602060002001600090919091909150558060010160009054906101000a900473ffffffffffffffffffffffffffffffffffffffff1673ffffffffffffffffffffffffffffffffffffffff166108fc839081150290604051600060405180830381858888f19350505050158015610606573d6000803e3d6000fd5b508181600601600082825461061b91906115ca565b92505081905550505050565b600080600080600154815260200190815260200160002090506001548160000181905550878160010160006101000a81548173ffffffffffffffffffffffffffffffffffffffff021916908373ffffffffffffffffffffffffffffffffffffffff160217905550868160020190805190602001906106a6929190610b08565b50858160030190805190602001906106bf929190610b08565b5084816004018190555083816005018190555060008160060181905550828160070190805190602001906106f4929190610b08565b506001600081548092919061070890611620565b91905055506001805461071b9190611669565b9150509695505050505050565b6060600060015467ffffffffffffffff8111156107485761074761101d565b5b60405190808252806020026020018201604052801561078157816020015b61076e610b8e565b8152602001906001900390816107665790505b50905060005b600154811015610b0057600080600083815260200190815260200160002090508060405180610140016040529081600082015481526020016001820160009054906101000a900473ffffffffffffffffffffffffffffffffffffffff1673ffffffffffffffffffffffffffffffffffffffff1673ffffffffffffffffffffffffffffffffffffffff16815260200160028201805461082490611569565b80601f016020809104026020016040519081016040528092919081815260200182805461085090611569565b801561089d5780601f106108725761010080835404028352916020019161089d565b820191906000526020600020905b81548152906001019060200180831161088057829003601f168201915b505050505081526020016003820180546108b690611569565b80601f01602080910402602001604051908101604052809291908181526020018280546108e290611569565b801561092f5780601f106109045761010080835404028352916020019161092f565b820191906000526020600020905b81548152906001019060200180831161091257829003601f168201915b5050505050815260200160048201548152602001600582015481526020016006820154815260200160078201805461096690611569565b80601f016020809104026020016040519081016040528092919081815260200182805461099290611569565b80156109df5780601f106109b4576101008083540402835291602001916109df565b820191906000526020600020905b8154815290600101906020018083116109c257829003601f168201915b5050505050815260200160088201805480602002602001604051908101604052809291908181526020018280548015610a6d57602002820191906000526020600020905b8160009054906101000a900473ffffffffffffffffffffffffffffffffffffffff1673ffffffffffffffffffffffffffffffffffffffff1681526020019060010190808311610a23575b5050505050815260200160098201805480602002602001604051908101604052809291908181526020018280548015610ac557602002820191906000526020600020905b815481526020019060010190808311610ab1575b505050505081525050838381518110610ae157610ae061169d565b5b6020026020010181905250508080610af890611620565b915050610787565b508091505090565b828054610b1490611569565b90600052602060002090601f016020900481019282610b365760008555610b7d565b82601f10610b4f57805160ff1916838001178555610b7d565b82800160010185558215610b7d579182015b82811115610b7c578251825591602001919060010190610b61565b5b509050610b8a9190610bf7565b5090565b60405180610140016040528060008152602001600073ffffffffffffffffffffffffffffffffffffffff16815260200160608152602001606081526020016000815260200160008152602001600081526020016060815260200160608152602001606081525090565b5b80821115610c10576000816000905550600101610bf8565b5090565b6000819050919050565b610c2781610c14565b82525050565b6000602082019050610c426000830184610c1e565b92915050565b6000604051905090565b600080fd5b600080fd5b610c6581610c14565b8114610c7057600080fd5b50565b600081359050610c8281610c5c565b92915050565b600060208284031215610c9e57610c9d610c52565b5b6000610cac84828501610c73565b91505092915050565b600081519050919050565b600082825260208201905092915050565b6000819050602082019050919050565b600073ffffffffffffffffffffffffffffffffffffffff82169050919050565b6000610d0c82610ce1565b9050919050565b610d1c81610d01565b82525050565b6000610d2e8383610d13565b60208301905092915050565b6000602082019050919050565b6000610d5282610cb5565b610d5c8185610cc0565b9350610d6783610cd1565b8060005b83811015610d98578151610d7f8882610d22565b9750610d8a83610d3a565b925050600181019050610d6b565b5085935050505092915050565b600081519050919050565b600082825260208201905092915050565b6000819050602082019050919050565b610dda81610c14565b82525050565b6000610dec8383610dd1565b60208301905092915050565b6000602082019050919050565b6000610e1082610da5565b610e1a8185610db0565b9350610e2583610dc1565b8060005b83811015610e56578151610e3d8882610de0565b9750610e4883610df8565b925050600181019050610e29565b5085935050505092915050565b60006040820190508181036000830152610e7d8185610d47565b90508181036020830152610e918184610e05565b90509392505050565b6000610ea582610ce1565b9050919050565b610eb581610e9a565b82525050565b600081519050919050565b600082825260208201905092915050565b60005b83811015610ef5578082015181840152602081019050610eda565b83811115610f04576000848401525b50505050565b6000601f19601f8301169050919050565b6000610f2682610ebb565b610f308185610ec6565b9350610f40818560208601610ed7565b610f4981610f0a565b840191505092915050565b600061010082019050610f6a600083018b610c1e565b610f77602083018a610eac565b8181036040830152610f898189610f1b565b90508181036060830152610f9d8188610f1b565b9050610fac6080830187610c1e565b610fb960a0830186610c1e565b610fc660c0830185610c1e565b81810360e0830152610fd88184610f1b565b90509998505050505050505050565b610ff081610e9a565b8114610ffb57600080fd5b50565b60008135905061100d81610fe7565b92915050565b600080fd5b600080fd5b7f4e487b7100000000000000000000000000000000000000000000000000000000600052604160045260246000fd5b61105582610f0a565b810181811067ffffffffffffffff821117156110745761107361101d565b5b80604052505050565b6000611087610c48565b9050611093828261104c565b919050565b600067ffffffffffffffff8211156110b3576110b261101d565b5b6110bc82610f0a565b9050602081019050919050565b82818337600083830152505050565b60006110eb6110e684611098565b61107d565b90508281526020810184848401111561110757611106611018565b5b6111128482856110c9565b509392505050565b600082601f83011261112f5761112e611013565b5b813561113f8482602086016110d8565b91505092915050565b60008060008060008060c0878903121561116557611164610c52565b5b600061117389828a01610ffe565b965050602087013567ffffffffffffffff81111561119457611193610c57565b5b6111a089828a0161111a565b955050604087013567ffffffffffffffff8111156111c1576111c0610c57565b5b6111cd89828a0161111a565b94505060606111de89828a01610c73565b93505060806111ef89828a01610c73565b92505060a087013567ffffffffffffffff8111156112105761120f610c57565b5b61121c89828a0161111a565b9150509295509295509295565b600081519050919050565b600082825260208201905092915050565b6000819050602082019050919050565b61125e81610e9a565b82525050565b600082825260208201905092915050565b600061128082610ebb565b61128a8185611264565b935061129a818560208601610ed7565b6112a381610f0a565b840191505092915050565b600082825260208201905092915050565b60006112ca82610cb5565b6112d481856112ae565b93506112df83610cd1565b8060005b838110156113105781516112f78882610d22565b975061130283610d3a565b9250506001810190506112e3565b5085935050505092915050565b600082825260208201905092915050565b600061133982610da5565b611343818561131d565b935061134e83610dc1565b8060005b8381101561137f5781516113668882610de0565b975061137183610df8565b925050600181019050611352565b5085935050505092915050565b6000610140830160008301516113a56000860182610dd1565b5060208301516113b86020860182611255565b50604083015184820360408601526113d08282611275565b915050606083015184820360608601526113ea8282611275565b91505060808301516113ff6080860182610dd1565b5060a083015161141260a0860182610dd1565b5060c083015161142560c0860182610dd1565b5060e083015184820360e086015261143d8282611275565b91505061010083015184820361010086015261145982826112bf565b915050610120830151848203610120860152611475828261132e565b9150508091505092915050565b600061148e838361138c565b905092915050565b6000602082019050919050565b60006114ae82611229565b6114b88185611234565b9350836020820285016114ca85611245565b8060005b8581101561150657848403895281516114e78582611482565b94506114f283611496565b925060208a019950506001810190506114ce565b50829750879550505050505092915050565b6000602082019050818103600083015261153281846114a3565b905092915050565b7f4e487b7100000000000000000000000000000000000000000000000000000000600052602260045260246000fd5b6000600282049050600182168061158157607f821691505b602082108114156115955761159461153a565b5b50919050565b7f4e487b7100000000000000000000000000000000000000000000000000000000600052601160045260246000fd5b60006115d582610c14565b91506115e083610c14565b9250827fffffffffffffffffffffffffffffffffffffffffffffffffffffffffffffffff038211156116155761161461159b565b5b828201905092915050565b600061162b82610c14565b91507fffffffffffffffffffffffffffffffffffffffffffffffffffffffffffffffff82141561165e5761165d61159b565b5b600182019050919050565b600061167482610c14565b915061167f83610c14565b9250828210156116925761169161159b565b5b828203905092915050565b7f4e487b7100000000000000000000000000000000000000000000000000000000600052603260045260246000fdfea26469706673582212202541cb7191ba8100a8b9555985cd9a01b0218bf9b372dd6711d53cbd8bf6866c64736f6c634300080b0033",
  "immutableReferences": {},
  "source": "// SPDX-License-Identifier: UNLICENSED\npragma solidity ^0.8.9;\n\n\ncontract Crowdfunding {\n    struct Campaign {\n        uint256 id;\n        address payable owner;\n        string title;\n        string description;\n        uint256 target;\n        uint256 timeLimit;\n        uint256 collected;\n        string image;\n        address[] backers;\n        uint256[] donations;\n    }\n\n    mapping(uint256 => Campaign) public campaigns;\n\n    uint256 public numberOfCampaigns = 0;\n\n    function createCampaign(address payable _owner, string memory _title, string memory _description, uint256 _target, uint256 _deadline, string memory _image) public returns (uint256) {\n        Campaign storage campaign = campaigns[numberOfCampaigns];\n\n        campaign.id = numberOfCampaigns;\n        campaign.owner = _owner;\n        campaign.title = _title;\n        campaign.description = _description;\n        campaign.target = _target;\n        campaign.timeLimit = _deadline;\n        campaign.collected = 0;\n        campaign.image = _image;\n\n        numberOfCampaigns++;\n\n        return numberOfCampaigns - 1;\n    }\n\n    function totalCompaigns() view public returns (uint256) {\n        return numberOfCampaigns;\n    }\n\n    function donateToCampaign(uint256 _id) public payable {\n        uint256 amount = msg.value;\n\n        Campaign storage campaign = campaigns[_id];\n\n        campaign.backers.push(msg.sender);\n        campaign.donations.push(amount);\n\n        campaign.owner.transfer(amount);\n\n        campaign.collected += amount;\n    }\n\n    function getDonators(uint256 _id) view public returns (address[] memory, uint256[] memory) {\n        return (campaigns[_id].backers, campaigns[_id].donations);\n    }\n\n    function getCampaigns() public view returns (Campaign[] memory) {\n        Campaign[] memory allCampaigns = new Campaign[](numberOfCampaigns);\n\n        for(uint i = 0; i < numberOfCampaigns; i++) {\n            Campaign storage item = campaigns[i];\n\n            allCampaigns[i] = item;\n        }\n\n        return allCampaigns;\n    }\n}",
  "sourcePath": "/home/max/Documents/uni/blockchain/crowdfunding-dapp/contracts/Crowdfunding.sol",
  "compiler": {
    "name": "solc",
    "version": "0.8.11+commit.d7f03943.Emscripten.clang"
  },
  "schemaVersion": "3.4.4",
  "updatedAt": "2022-12-12T15:22:52.111Z",
  "networkType": "ethereum",
  "devdoc": {
    "kind": "dev",
    "methods": {},
    "version": 1
  },
  "userdoc": {
    "kind": "user",
    "methods": {},
    "version": 1
  }
}