{
  "contractName": "Crowdfunding",
  "abi": [
    {
      "inputs": [
        {
          "internalType": "uint256",
          "name": "",
          "type": "uint256"
        }
      ],
      "name": "campaigns",
      "outputs": [
        {
          "internalType": "uint256",
          "name": "id",
          "type": "uint256"
        },
        {
          "internalType": "address",
          "name": "owner",
          "type": "address"
        },
        {
          "internalType": "string",
          "name": "title",
          "type": "string"
        },
        {
          "internalType": "string",
          "name": "description",
          "type": "string"
        },
        {
          "internalType": "uint256",
          "name": "target",
          "type": "uint256"
        },
        {
          "internalType": "uint256",
          "name": "deadline",
          "type": "uint256"
        },
        {
          "internalType": "uint256",
          "name": "amountCollected",
          "type": "uint256"
        },
        {
          "internalType": "string",
          "name": "image",
          "type": "string"
        }
      ],
      "stateMutability": "view",
      "type": "function",
      "constant": true
    },
    {
      "inputs": [],
      "name": "numberOfCampaigns",
      "outputs": [
        {
          "internalType": "uint256",
          "name": "",
          "type": "uint256"
        }
      ],
      "stateMutability": "view",
      "type": "function",
      "constant": true
    },
    {
      "inputs": [
        {
          "internalType": "address",
          "name": "_owner",
          "type": "address"
        },
        {
          "internalType": "string",
          "name": "_title",
          "type": "string"
        },
        {
          "internalType": "string",
          "name": "_description",
          "type": "string"
        },
        {
          "internalType": "uint256",
          "name": "_target",
          "type": "uint256"
        },
        {
          "internalType": "uint256",
          "name": "_deadline",
          "type": "uint256"
        },
        {
          "internalType": "string",
          "name": "_image",
          "type": "string"
        }
      ],
      "name": "createCampaign",
      "outputs": [
        {
          "internalType": "uint256",
          "name": "",
          "type": "uint256"
        }
      ],
      "stateMutability": "nonpayable",
      "type": "function"
    },
    {
      "inputs": [
        {
          "internalType": "uint256",
          "name": "_id",
          "type": "uint256"
        }
      ],
      "name": "donateToCampaign",
      "outputs": [],
      "stateMutability": "payable",
      "type": "function",
      "payable": true
    },
    {
      "inputs": [
        {
          "internalType": "uint256",
          "name": "_id",
          "type": "uint256"
        }
      ],
      "name": "getDonators",
      "outputs": [
        {
          "internalType": "address[]",
          "name": "",
          "type": "address[]"
        },
        {
          "internalType": "uint256[]",
          "name": "",
          "type": "uint256[]"
        }
      ],
      "stateMutability": "view",
      "type": "function",
      "constant": true
    },
    {
      "inputs": [],
      "name": "getNumOfComaigns",
      "outputs": [
        {
          "internalType": "uint256",
          "name": "",
          "type": "uint256"
        }
      ],
      "stateMutability": "view",
      "type": "function",
      "constant": true
    },
    {
      "inputs": [],
      "name": "getCampaigns",
      "outputs": [
        {
          "components": [
            {
              "internalType": "uint256",
              "name": "id",
              "type": "uint256"
            },
            {
              "internalType": "address",
              "name": "owner",
              "type": "address"
            },
            {
              "internalType": "string",
              "name": "title",
              "type": "string"
            },
            {
              "internalType": "string",
              "name": "description",
              "type": "string"
            },
            {
              "internalType": "uint256",
              "name": "target",
              "type": "uint256"
            },
            {
              "internalType": "uint256",
              "name": "deadline",
              "type": "uint256"
            },
            {
              "internalType": "uint256",
              "name": "amountCollected",
              "type": "uint256"
            },
            {
              "internalType": "string",
              "name": "image",
              "type": "string"
            },
            {
              "internalType": "address[]",
              "name": "donators",
              "type": "address[]"
            },
            {
              "internalType": "uint256[]",
              "name": "donations",
              "type": "uint256[]"
            }
          ],
          "internalType": "struct Crowdfunding.Campaign[]",
          "name": "",
          "type": "tuple[]"
        }
      ],
      "stateMutability": "view",
      "type": "function",
      "constant": true
    }
  ],
  "bytecode": "0x6080604052600060015534801561001557600080fd5b50611829806100256000396000f3fe6080604052600436106100705760003560e01c806342a4fda81161004e57806342a4fda814610122578063801ac2731461013e5780639943e3a114610169578063a6b03633146101a657610070565b806307ca140d146100755780630fa91fa9146100a0578063141961bc146100de575b600080fd5b34801561008157600080fd5b5061008a6101d1565b6040516100979190610c9d565b60405180910390f35b3480156100ac57600080fd5b506100c760048036038101906100c29190610cf8565b6101d7565b6040516100d5929190610ed3565b60405180910390f35b3480156100ea57600080fd5b5061010560048036038101906101009190610cf8565b6102e7565b604051610119989796959493929190610fb2565b60405180910390f35b61013c60048036038101906101379190610cf8565b6104e7565b005b34801561014a57600080fd5b50610153610647565b6040516101609190610c9d565b60405180910390f35b34801561017557600080fd5b50610190600480360381019061018b91906111a6565b610651565b60405161019d9190610c9d565b60405180910390f35b3480156101b257600080fd5b506101bb610798565b6040516101c89190611567565b60405180910390f35b60015481565b6060806000808481526020019081526020016000206008016000808581526020019081526020016000206009018180548060200260200160405190810160405280929190818152602001828054801561028557602002820191906000526020600020905b8160009054906101000a900473ffffffffffffffffffffffffffffffffffffffff1673ffffffffffffffffffffffffffffffffffffffff168152602001906001019080831161023b575b50505050509150808054806020026020016040519081016040528092919081815260200182805480156102d757602002820191906000526020600020905b8154815260200190600101908083116102c3575b5050505050905091509150915091565b60006020528060005260406000206000915090508060000154908060010160009054906101000a900473ffffffffffffffffffffffffffffffffffffffff1690806002018054610336906115b8565b80601f0160208091040260200160405190810160405280929190818152602001828054610362906115b8565b80156103af5780601f10610384576101008083540402835291602001916103af565b820191906000526020600020905b81548152906001019060200180831161039257829003601f168201915b5050505050908060030180546103c4906115b8565b80601f01602080910402602001604051908101604052809291908181526020018280546103f0906115b8565b801561043d5780601f106104125761010080835404028352916020019161043d565b820191906000526020600020905b81548152906001019060200180831161042057829003601f168201915b505050505090806004015490806005015490806006015490806007018054610464906115b8565b80601f0160208091040260200160405190810160405280929190818152602001828054610490906115b8565b80156104dd5780601f106104b2576101008083540402835291602001916104dd565b820191906000526020600020905b8154815290600101906020018083116104c057829003601f168201915b5050505050905088565b60003490506000806000848152602001908152602001600020905080600801339080600181540180825580915050600190039060005260206000200160009091909190916101000a81548173ffffffffffffffffffffffffffffffffffffffff021916908373ffffffffffffffffffffffffffffffffffffffff1602179055508060090182908060018154018082558091505060019003906000526020600020016000909190919091505560008160010160009054906101000a900473ffffffffffffffffffffffffffffffffffffffff1673ffffffffffffffffffffffffffffffffffffffff16836040516105dc9061161b565b60006040518083038185875af1925050503d8060008114610619576040519150601f19603f3d011682016040523d82523d6000602084013e61061e565b606091505b50509050801561064157828260060154610638919061165f565b82600601819055505b50505050565b6000600154905090565b60008060008060015481526020019081526020016000209050428160050154106106b0576040517f08c379a00000000000000000000000000000000000000000000000000000000081526004016106a790611727565b60405180910390fd5b6001548160000181905550878160010160006101000a81548173ffffffffffffffffffffffffffffffffffffffff021916908373ffffffffffffffffffffffffffffffffffffffff16021790555086816002019080519060200190610716929190610b78565b508581600301908051906020019061072f929190610b78565b508481600401819055508381600501819055506000816006018190555082816007019080519060200190610764929190610b78565b506001600081548092919061077890611747565b91905055506001805461078b9190611790565b9150509695505050505050565b6060600060015467ffffffffffffffff8111156107b8576107b761107b565b5b6040519080825280602002602001820160405280156107f157816020015b6107de610bfe565b8152602001906001900390816107d65790505b50905060005b600154811015610b7057600080600083815260200190815260200160002090508060405180610140016040529081600082015481526020016001820160009054906101000a900473ffffffffffffffffffffffffffffffffffffffff1673ffffffffffffffffffffffffffffffffffffffff1673ffffffffffffffffffffffffffffffffffffffff168152602001600282018054610894906115b8565b80601f01602080910402602001604051908101604052809291908181526020018280546108c0906115b8565b801561090d5780601f106108e25761010080835404028352916020019161090d565b820191906000526020600020905b8154815290600101906020018083116108f057829003601f168201915b50505050508152602001600382018054610926906115b8565b80601f0160208091040260200160405190810160405280929190818152602001828054610952906115b8565b801561099f5780601f106109745761010080835404028352916020019161099f565b820191906000526020600020905b81548152906001019060200180831161098257829003601f168201915b505050505081526020016004820154815260200160058201548152602001600682015481526020016007820180546109d6906115b8565b80601f0160208091040260200160405190810160405280929190818152602001828054610a02906115b8565b8015610a4f5780601f10610a2457610100808354040283529160200191610a4f565b820191906000526020600020905b815481529060010190602001808311610a3257829003601f168201915b5050505050815260200160088201805480602002602001604051908101604052809291908181526020018280548015610add57602002820191906000526020600020905b8160009054906101000a900473ffffffffffffffffffffffffffffffffffffffff1673ffffffffffffffffffffffffffffffffffffffff1681526020019060010190808311610a93575b5050505050815260200160098201805480602002602001604051908101604052809291908181526020018280548015610b3557602002820191906000526020600020905b815481526020019060010190808311610b21575b505050505081525050838381518110610b5157610b506117c4565b5b6020026020010181905250508080610b6890611747565b9150506107f7565b508091505090565b828054610b84906115b8565b90600052602060002090601f016020900481019282610ba65760008555610bed565b82601f10610bbf57805160ff1916838001178555610bed565b82800160010185558215610bed579182015b82811115610bec578251825591602001919060010190610bd1565b5b509050610bfa9190610c67565b5090565b60405180610140016040528060008152602001600073ffffffffffffffffffffffffffffffffffffffff16815260200160608152602001606081526020016000815260200160008152602001600081526020016060815260200160608152602001606081525090565b5b80821115610c80576000816000905550600101610c68565b5090565b6000819050919050565b610c9781610c84565b82525050565b6000602082019050610cb26000830184610c8e565b92915050565b6000604051905090565b600080fd5b600080fd5b610cd581610c84565b8114610ce057600080fd5b50565b600081359050610cf281610ccc565b92915050565b600060208284031215610d0e57610d0d610cc2565b5b6000610d1c84828501610ce3565b91505092915050565b600081519050919050565b600082825260208201905092915050565b6000819050602082019050919050565b600073ffffffffffffffffffffffffffffffffffffffff82169050919050565b6000610d7c82610d51565b9050919050565b610d8c81610d71565b82525050565b6000610d9e8383610d83565b60208301905092915050565b6000602082019050919050565b6000610dc282610d25565b610dcc8185610d30565b9350610dd783610d41565b8060005b83811015610e08578151610def8882610d92565b9750610dfa83610daa565b925050600181019050610ddb565b5085935050505092915050565b600081519050919050565b600082825260208201905092915050565b6000819050602082019050919050565b610e4a81610c84565b82525050565b6000610e5c8383610e41565b60208301905092915050565b6000602082019050919050565b6000610e8082610e15565b610e8a8185610e20565b9350610e9583610e31565b8060005b83811015610ec6578151610ead8882610e50565b9750610eb883610e68565b925050600181019050610e99565b5085935050505092915050565b60006040820190508181036000830152610eed8185610db7565b90508181036020830152610f018184610e75565b90509392505050565b610f1381610d71565b82525050565b600081519050919050565b600082825260208201905092915050565b60005b83811015610f53578082015181840152602081019050610f38565b83811115610f62576000848401525b50505050565b6000601f19601f8301169050919050565b6000610f8482610f19565b610f8e8185610f24565b9350610f9e818560208601610f35565b610fa781610f68565b840191505092915050565b600061010082019050610fc8600083018b610c8e565b610fd5602083018a610f0a565b8181036040830152610fe78189610f79565b90508181036060830152610ffb8188610f79565b905061100a6080830187610c8e565b61101760a0830186610c8e565b61102460c0830185610c8e565b81810360e08301526110368184610f79565b90509998505050505050505050565b61104e81610d71565b811461105957600080fd5b50565b60008135905061106b81611045565b92915050565b600080fd5b600080fd5b7f4e487b7100000000000000000000000000000000000000000000000000000000600052604160045260246000fd5b6110b382610f68565b810181811067ffffffffffffffff821117156110d2576110d161107b565b5b80604052505050565b60006110e5610cb8565b90506110f182826110aa565b919050565b600067ffffffffffffffff8211156111115761111061107b565b5b61111a82610f68565b9050602081019050919050565b82818337600083830152505050565b6000611149611144846110f6565b6110db565b90508281526020810184848401111561116557611164611076565b5b611170848285611127565b509392505050565b600082601f83011261118d5761118c611071565b5b813561119d848260208601611136565b91505092915050565b60008060008060008060c087890312156111c3576111c2610cc2565b5b60006111d189828a0161105c565b965050602087013567ffffffffffffffff8111156111f2576111f1610cc7565b5b6111fe89828a01611178565b955050604087013567ffffffffffffffff81111561121f5761121e610cc7565b5b61122b89828a01611178565b945050606061123c89828a01610ce3565b935050608061124d89828a01610ce3565b92505060a087013567ffffffffffffffff81111561126e5761126d610cc7565b5b61127a89828a01611178565b9150509295509295509295565b600081519050919050565b600082825260208201905092915050565b6000819050602082019050919050565b600082825260208201905092915050565b60006112cf82610f19565b6112d981856112b3565b93506112e9818560208601610f35565b6112f281610f68565b840191505092915050565b600082825260208201905092915050565b600061131982610d25565b61132381856112fd565b935061132e83610d41565b8060005b8381101561135f5781516113468882610d92565b975061135183610daa565b925050600181019050611332565b5085935050505092915050565b600082825260208201905092915050565b600061138882610e15565b611392818561136c565b935061139d83610e31565b8060005b838110156113ce5781516113b58882610e50565b97506113c083610e68565b9250506001810190506113a1565b5085935050505092915050565b6000610140830160008301516113f46000860182610e41565b5060208301516114076020860182610d83565b506040830151848203604086015261141f82826112c4565b9150506060830151848203606086015261143982826112c4565b915050608083015161144e6080860182610e41565b5060a083015161146160a0860182610e41565b5060c083015161147460c0860182610e41565b5060e083015184820360e086015261148c82826112c4565b9150506101008301518482036101008601526114a8828261130e565b9150506101208301518482036101208601526114c4828261137d565b9150508091505092915050565b60006114dd83836113db565b905092915050565b6000602082019050919050565b60006114fd82611287565b6115078185611292565b935083602082028501611519856112a3565b8060005b85811015611555578484038952815161153685826114d1565b9450611541836114e5565b925060208a0199505060018101905061151d565b50829750879550505050505092915050565b6000602082019050818103600083015261158181846114f2565b905092915050565b7f4e487b7100000000000000000000000000000000000000000000000000000000600052602260045260246000fd5b600060028204905060018216806115d057607f821691505b602082108114156115e4576115e3611589565b5b50919050565b600081905092915050565b50565b60006116056000836115ea565b9150611610826115f5565b600082019050919050565b6000611626826115f8565b9150819050919050565b7f4e487b7100000000000000000000000000000000000000000000000000000000600052601160045260246000fd5b600061166a82610c84565b915061167583610c84565b9250827fffffffffffffffffffffffffffffffffffffffffffffffffffffffffffffffff038211156116aa576116a9611630565b5b828201905092915050565b7f54686520646561646c696e652073686f756c642062652061206461746520696e60008201527f20746865206675747572652e0000000000000000000000000000000000000000602082015250565b6000611711602c83610f24565b915061171c826116b5565b604082019050919050565b6000602082019050818103600083015261174081611704565b9050919050565b600061175282610c84565b91507fffffffffffffffffffffffffffffffffffffffffffffffffffffffffffffffff82141561178557611784611630565b5b600182019050919050565b600061179b82610c84565b91506117a683610c84565b9250828210156117b9576117b8611630565b5b828203905092915050565b7f4e487b7100000000000000000000000000000000000000000000000000000000600052603260045260246000fdfea2646970667358221220e590e96578eeb61da80559af183e660c9131948b45bf70488d3cb92f1dc1a9ba64736f6c634300080b0033",
  "immutableReferences": {},
  "source": "// SPDX-License-Identifier: UNLICENSED\npragma solidity ^0.8.9;\n\ncontract Crowdfunding {\n    struct Campaign {\n        uint256 id;\n        address owner;\n        string title;\n        string description;\n        uint256 target;\n        uint256 deadline;\n        uint256 amountCollected;\n        string image;\n        address[] donators;\n        uint256[] donations;\n    }\n\n    mapping(uint256 => Campaign) public campaigns;\n\n    uint256 public numberOfCampaigns = 0;\n\n    function createCampaign(address _owner, string memory _title, string memory _description, uint256 _target, uint256 _deadline, string memory _image) public returns (uint256) {\n        Campaign storage campaign = campaigns[numberOfCampaigns];\n\n        require(campaign.deadline < block.timestamp, \"The deadline should be a date in the future.\");\n\n        campaign.id = numberOfCampaigns;\n        campaign.owner = _owner;\n        campaign.title = _title;\n        campaign.description = _description;\n        campaign.target = _target;\n        campaign.deadline = _deadline;\n        campaign.amountCollected = 0;\n        campaign.image = _image;\n\n        numberOfCampaigns++;\n\n        return numberOfCampaigns - 1;\n    }\n\n    function donateToCampaign(uint256 _id) public payable {\n        uint256 amount = msg.value;\n\n        Campaign storage campaign = campaigns[_id];\n\n        campaign.donators.push(msg.sender);\n        campaign.donations.push(amount);\n\n        (bool sent,) = payable(campaign.owner).call{value: amount}(\"\");\n\n        if(sent) {\n            campaign.amountCollected = campaign.amountCollected + amount;\n        }\n    }\n\n    function getDonators(uint256 _id) view public returns (address[] memory, uint256[] memory) {\n        return (campaigns[_id].donators, campaigns[_id].donations);\n    }\n\n    function getNumOfComaigns() view public returns (uint256) {\n        return numberOfCampaigns;\n    }\n\n    function getCampaigns() public view returns (Campaign[] memory) {\n        Campaign[] memory allCampaigns = new Campaign[](numberOfCampaigns);\n\n        for(uint i = 0; i < numberOfCampaigns; i++) {\n            Campaign storage item = campaigns[i];\n\n            allCampaigns[i] = item;\n        }\n\n        return allCampaigns;\n    }\n}",
  "sourcePath": "/home/max/Documents/uni/blockchain/crowdfunding-dapp/contracts/Crowdfunding.sol",
  "compiler": {
    "name": "solc",
    "version": "0.8.11+commit.d7f03943.Emscripten.clang"
  },
  "schemaVersion": "3.4.4",
  "updatedAt": "2022-12-12T11:13:11.851Z",
  "networkType": "ethereum",
  "devdoc": {
    "kind": "dev",
    "methods": {},
    "version": 1
  },
  "userdoc": {
    "kind": "user",
    "methods": {},
    "version": 1
  }
}