{
  "contractName": "Crowdfunding",
  "abi": [
    {
      "inputs": [
        {
          "internalType": "uint256",
          "name": "",
          "type": "uint256"
        }
      ],
      "name": "campaigns",
      "outputs": [
        {
          "internalType": "address",
          "name": "owner",
          "type": "address"
        },
        {
          "internalType": "string",
          "name": "title",
          "type": "string"
        },
        {
          "internalType": "string",
          "name": "description",
          "type": "string"
        },
        {
          "internalType": "uint256",
          "name": "target",
          "type": "uint256"
        },
        {
          "internalType": "uint256",
          "name": "deadline",
          "type": "uint256"
        },
        {
          "internalType": "uint256",
          "name": "amountCollected",
          "type": "uint256"
        },
        {
          "internalType": "string",
          "name": "image",
          "type": "string"
        }
      ],
      "stateMutability": "view",
      "type": "function",
      "constant": true
    },
    {
      "inputs": [],
      "name": "numberOfCampaigns",
      "outputs": [
        {
          "internalType": "uint256",
          "name": "",
          "type": "uint256"
        }
      ],
      "stateMutability": "view",
      "type": "function",
      "constant": true
    },
    {
      "inputs": [
        {
          "internalType": "address",
          "name": "_owner",
          "type": "address"
        },
        {
          "internalType": "string",
          "name": "_title",
          "type": "string"
        },
        {
          "internalType": "string",
          "name": "_description",
          "type": "string"
        },
        {
          "internalType": "uint256",
          "name": "_target",
          "type": "uint256"
        },
        {
          "internalType": "uint256",
          "name": "_deadline",
          "type": "uint256"
        },
        {
          "internalType": "string",
          "name": "_image",
          "type": "string"
        }
      ],
      "name": "createCampaign",
      "outputs": [
        {
          "internalType": "uint256",
          "name": "",
          "type": "uint256"
        }
      ],
      "stateMutability": "nonpayable",
      "type": "function"
    },
    {
      "inputs": [
        {
          "internalType": "uint256",
          "name": "_id",
          "type": "uint256"
        }
      ],
      "name": "donateToCampaign",
      "outputs": [],
      "stateMutability": "payable",
      "type": "function",
      "payable": true
    },
    {
      "inputs": [
        {
          "internalType": "uint256",
          "name": "_id",
          "type": "uint256"
        }
      ],
      "name": "getDonators",
      "outputs": [
        {
          "internalType": "address[]",
          "name": "",
          "type": "address[]"
        },
        {
          "internalType": "uint256[]",
          "name": "",
          "type": "uint256[]"
        }
      ],
      "stateMutability": "view",
      "type": "function",
      "constant": true
    },
    {
      "inputs": [],
      "name": "getNumOfComaigns",
      "outputs": [
        {
          "internalType": "uint256",
          "name": "",
          "type": "uint256"
        }
      ],
      "stateMutability": "view",
      "type": "function",
      "constant": true
    },
    {
      "inputs": [],
      "name": "getCampaigns",
      "outputs": [
        {
          "components": [
            {
              "internalType": "address",
              "name": "owner",
              "type": "address"
            },
            {
              "internalType": "string",
              "name": "title",
              "type": "string"
            },
            {
              "internalType": "string",
              "name": "description",
              "type": "string"
            },
            {
              "internalType": "uint256",
              "name": "target",
              "type": "uint256"
            },
            {
              "internalType": "uint256",
              "name": "deadline",
              "type": "uint256"
            },
            {
              "internalType": "uint256",
              "name": "amountCollected",
              "type": "uint256"
            },
            {
              "internalType": "string",
              "name": "image",
              "type": "string"
            },
            {
              "internalType": "address[]",
              "name": "donators",
              "type": "address[]"
            },
            {
              "internalType": "uint256[]",
              "name": "donations",
              "type": "uint256[]"
            }
          ],
          "internalType": "struct Crowdfunding.Campaign[]",
          "name": "",
          "type": "tuple[]"
        }
      ],
      "stateMutability": "view",
      "type": "function",
      "constant": true
    }
  ],
  "bytecode": "0x6080604052600060015534801561001557600080fd5b506117e2806100256000396000f3fe6080604052600436106100705760003560e01c806342a4fda81161004e57806342a4fda814610121578063801ac2731461013d5780639943e3a114610168578063a6b03633146101a557610070565b806307ca140d146100755780630fa91fa9146100a0578063141961bc146100de575b600080fd5b34801561008157600080fd5b5061008a6101d0565b6040516100979190610c7a565b60405180910390f35b3480156100ac57600080fd5b506100c760048036038101906100c29190610cd5565b6101d6565b6040516100d5929190610eb0565b60405180910390f35b3480156100ea57600080fd5b5061010560048036038101906101009190610cd5565b6102e6565b6040516101189796959493929190610f8f565b60405180910390f35b61013b60048036038101906101369190610cd5565b6104e0565b005b34801561014957600080fd5b50610152610640565b60405161015f9190610c7a565b60405180910390f35b34801561017457600080fd5b5061018f600480360381019061018a9190611174565b61064a565b60405161019c9190610c7a565b60405180910390f35b3480156101b157600080fd5b506101ba610786565b6040516101c79190611520565b60405180910390f35b60015481565b6060806000808481526020019081526020016000206007016000808581526020019081526020016000206008018180548060200260200160405190810160405280929190818152602001828054801561028457602002820191906000526020600020905b8160009054906101000a900473ffffffffffffffffffffffffffffffffffffffff1673ffffffffffffffffffffffffffffffffffffffff168152602001906001019080831161023a575b50505050509150808054806020026020016040519081016040528092919081815260200182805480156102d657602002820191906000526020600020905b8154815260200190600101908083116102c2575b5050505050905091509150915091565b60006020528060005260406000206000915090508060000160009054906101000a900473ffffffffffffffffffffffffffffffffffffffff169080600101805461032f90611571565b80601f016020809104026020016040519081016040528092919081815260200182805461035b90611571565b80156103a85780601f1061037d576101008083540402835291602001916103a8565b820191906000526020600020905b81548152906001019060200180831161038b57829003601f168201915b5050505050908060020180546103bd90611571565b80601f01602080910402602001604051908101604052809291908181526020018280546103e990611571565b80156104365780601f1061040b57610100808354040283529160200191610436565b820191906000526020600020905b81548152906001019060200180831161041957829003601f168201915b50505050509080600301549080600401549080600501549080600601805461045d90611571565b80601f016020809104026020016040519081016040528092919081815260200182805461048990611571565b80156104d65780601f106104ab576101008083540402835291602001916104d6565b820191906000526020600020905b8154815290600101906020018083116104b957829003601f168201915b5050505050905087565b60003490506000806000848152602001908152602001600020905080600701339080600181540180825580915050600190039060005260206000200160009091909190916101000a81548173ffffffffffffffffffffffffffffffffffffffff021916908373ffffffffffffffffffffffffffffffffffffffff1602179055508060080182908060018154018082558091505060019003906000526020600020016000909190919091505560008160000160009054906101000a900473ffffffffffffffffffffffffffffffffffffffff1673ffffffffffffffffffffffffffffffffffffffff16836040516105d5906115d4565b60006040518083038185875af1925050503d8060008114610612576040519150601f19603f3d011682016040523d82523d6000602084013e610617565b606091505b50509050801561063a578282600501546106319190611618565b82600501819055505b50505050565b6000600154905090565b60008060008060015481526020019081526020016000209050428160040154106106a9576040517f08c379a00000000000000000000000000000000000000000000000000000000081526004016106a0906116e0565b60405180910390fd5b878160000160006101000a81548173ffffffffffffffffffffffffffffffffffffffff021916908373ffffffffffffffffffffffffffffffffffffffff16021790555086816001019080519060200190610704929190610b5c565b508581600201908051906020019061071d929190610b5c565b508481600301819055508381600401819055506000816005018190555082816006019080519060200190610752929190610b5c565b506001600081548092919061076690611700565b9190505550600180546107799190611749565b9150509695505050505050565b6060600060015467ffffffffffffffff8111156107a6576107a5611049565b5b6040519080825280602002602001820160405280156107df57816020015b6107cc610be2565b8152602001906001900390816107c45790505b50905060005b600154811015610b54576000806000838152602001908152602001600020905080604051806101200160405290816000820160009054906101000a900473ffffffffffffffffffffffffffffffffffffffff1673ffffffffffffffffffffffffffffffffffffffff1673ffffffffffffffffffffffffffffffffffffffff16815260200160018201805461087890611571565b80601f01602080910402602001604051908101604052809291908181526020018280546108a490611571565b80156108f15780601f106108c6576101008083540402835291602001916108f1565b820191906000526020600020905b8154815290600101906020018083116108d457829003601f168201915b5050505050815260200160028201805461090a90611571565b80601f016020809104026020016040519081016040528092919081815260200182805461093690611571565b80156109835780601f1061095857610100808354040283529160200191610983565b820191906000526020600020905b81548152906001019060200180831161096657829003601f168201915b505050505081526020016003820154815260200160048201548152602001600582015481526020016006820180546109ba90611571565b80601f01602080910402602001604051908101604052809291908181526020018280546109e690611571565b8015610a335780601f10610a0857610100808354040283529160200191610a33565b820191906000526020600020905b815481529060010190602001808311610a1657829003601f168201915b5050505050815260200160078201805480602002602001604051908101604052809291908181526020018280548015610ac157602002820191906000526020600020905b8160009054906101000a900473ffffffffffffffffffffffffffffffffffffffff1673ffffffffffffffffffffffffffffffffffffffff1681526020019060010190808311610a77575b5050505050815260200160088201805480602002602001604051908101604052809291908181526020018280548015610b1957602002820191906000526020600020905b815481526020019060010190808311610b05575b505050505081525050838381518110610b3557610b3461177d565b5b6020026020010181905250508080610b4c90611700565b9150506107e5565b508091505090565b828054610b6890611571565b90600052602060002090601f016020900481019282610b8a5760008555610bd1565b82601f10610ba357805160ff1916838001178555610bd1565b82800160010185558215610bd1579182015b82811115610bd0578251825591602001919060010190610bb5565b5b509050610bde9190610c44565b5090565b604051806101200160405280600073ffffffffffffffffffffffffffffffffffffffff16815260200160608152602001606081526020016000815260200160008152602001600081526020016060815260200160608152602001606081525090565b5b80821115610c5d576000816000905550600101610c45565b5090565b6000819050919050565b610c7481610c61565b82525050565b6000602082019050610c8f6000830184610c6b565b92915050565b6000604051905090565b600080fd5b600080fd5b610cb281610c61565b8114610cbd57600080fd5b50565b600081359050610ccf81610ca9565b92915050565b600060208284031215610ceb57610cea610c9f565b5b6000610cf984828501610cc0565b91505092915050565b600081519050919050565b600082825260208201905092915050565b6000819050602082019050919050565b600073ffffffffffffffffffffffffffffffffffffffff82169050919050565b6000610d5982610d2e565b9050919050565b610d6981610d4e565b82525050565b6000610d7b8383610d60565b60208301905092915050565b6000602082019050919050565b6000610d9f82610d02565b610da98185610d0d565b9350610db483610d1e565b8060005b83811015610de5578151610dcc8882610d6f565b9750610dd783610d87565b925050600181019050610db8565b5085935050505092915050565b600081519050919050565b600082825260208201905092915050565b6000819050602082019050919050565b610e2781610c61565b82525050565b6000610e398383610e1e565b60208301905092915050565b6000602082019050919050565b6000610e5d82610df2565b610e678185610dfd565b9350610e7283610e0e565b8060005b83811015610ea3578151610e8a8882610e2d565b9750610e9583610e45565b925050600181019050610e76565b5085935050505092915050565b60006040820190508181036000830152610eca8185610d94565b90508181036020830152610ede8184610e52565b90509392505050565b610ef081610d4e565b82525050565b600081519050919050565b600082825260208201905092915050565b60005b83811015610f30578082015181840152602081019050610f15565b83811115610f3f576000848401525b50505050565b6000601f19601f8301169050919050565b6000610f6182610ef6565b610f6b8185610f01565b9350610f7b818560208601610f12565b610f8481610f45565b840191505092915050565b600060e082019050610fa4600083018a610ee7565b8181036020830152610fb68189610f56565b90508181036040830152610fca8188610f56565b9050610fd96060830187610c6b565b610fe66080830186610c6b565b610ff360a0830185610c6b565b81810360c08301526110058184610f56565b905098975050505050505050565b61101c81610d4e565b811461102757600080fd5b50565b60008135905061103981611013565b92915050565b600080fd5b600080fd5b7f4e487b7100000000000000000000000000000000000000000000000000000000600052604160045260246000fd5b61108182610f45565b810181811067ffffffffffffffff821117156110a05761109f611049565b5b80604052505050565b60006110b3610c95565b90506110bf8282611078565b919050565b600067ffffffffffffffff8211156110df576110de611049565b5b6110e882610f45565b9050602081019050919050565b82818337600083830152505050565b6000611117611112846110c4565b6110a9565b90508281526020810184848401111561113357611132611044565b5b61113e8482856110f5565b509392505050565b600082601f83011261115b5761115a61103f565b5b813561116b848260208601611104565b91505092915050565b60008060008060008060c0878903121561119157611190610c9f565b5b600061119f89828a0161102a565b965050602087013567ffffffffffffffff8111156111c0576111bf610ca4565b5b6111cc89828a01611146565b955050604087013567ffffffffffffffff8111156111ed576111ec610ca4565b5b6111f989828a01611146565b945050606061120a89828a01610cc0565b935050608061121b89828a01610cc0565b92505060a087013567ffffffffffffffff81111561123c5761123b610ca4565b5b61124889828a01611146565b9150509295509295509295565b600081519050919050565b600082825260208201905092915050565b6000819050602082019050919050565b600082825260208201905092915050565b600061129d82610ef6565b6112a78185611281565b93506112b7818560208601610f12565b6112c081610f45565b840191505092915050565b600082825260208201905092915050565b60006112e782610d02565b6112f181856112cb565b93506112fc83610d1e565b8060005b8381101561132d5781516113148882610d6f565b975061131f83610d87565b925050600181019050611300565b5085935050505092915050565b600082825260208201905092915050565b600061135682610df2565b611360818561133a565b935061136b83610e0e565b8060005b8381101561139c5781516113838882610e2d565b975061138e83610e45565b92505060018101905061136f565b5085935050505092915050565b6000610120830160008301516113c26000860182610d60565b50602083015184820360208601526113da8282611292565b915050604083015184820360408601526113f48282611292565b91505060608301516114096060860182610e1e565b50608083015161141c6080860182610e1e565b5060a083015161142f60a0860182610e1e565b5060c083015184820360c08601526114478282611292565b91505060e083015184820360e086015261146182826112dc565b91505061010083015184820361010086015261147d828261134b565b9150508091505092915050565b600061149683836113a9565b905092915050565b6000602082019050919050565b60006114b682611255565b6114c08185611260565b9350836020820285016114d285611271565b8060005b8581101561150e57848403895281516114ef858261148a565b94506114fa8361149e565b925060208a019950506001810190506114d6565b50829750879550505050505092915050565b6000602082019050818103600083015261153a81846114ab565b905092915050565b7f4e487b7100000000000000000000000000000000000000000000000000000000600052602260045260246000fd5b6000600282049050600182168061158957607f821691505b6020821081141561159d5761159c611542565b5b50919050565b600081905092915050565b50565b60006115be6000836115a3565b91506115c9826115ae565b600082019050919050565b60006115df826115b1565b9150819050919050565b7f4e487b7100000000000000000000000000000000000000000000000000000000600052601160045260246000fd5b600061162382610c61565b915061162e83610c61565b9250827fffffffffffffffffffffffffffffffffffffffffffffffffffffffffffffffff03821115611663576116626115e9565b5b828201905092915050565b7f54686520646561646c696e652073686f756c642062652061206461746520696e60008201527f20746865206675747572652e0000000000000000000000000000000000000000602082015250565b60006116ca602c83610f01565b91506116d58261166e565b604082019050919050565b600060208201905081810360008301526116f9816116bd565b9050919050565b600061170b82610c61565b91507fffffffffffffffffffffffffffffffffffffffffffffffffffffffffffffffff82141561173e5761173d6115e9565b5b600182019050919050565b600061175482610c61565b915061175f83610c61565b925082821015611772576117716115e9565b5b828203905092915050565b7f4e487b7100000000000000000000000000000000000000000000000000000000600052603260045260246000fdfea2646970667358221220c177d2924a1569abf932cd06d09e58daa7bbda73779222526d385d33a55b9a0464736f6c634300080b0033",
  "immutableReferences": {},
  "source": "// SPDX-License-Identifier: UNLICENSED\npragma solidity ^0.8.9;\n\ncontract Crowdfunding {\n    struct Campaign {\n        address owner;\n        string title;\n        string description;\n        uint256 target;\n        uint256 deadline;\n        uint256 amountCollected;\n        string image;\n        address[] donators;\n        uint256[] donations;\n    }\n\n    mapping(uint256 => Campaign) public campaigns;\n\n    uint256 public numberOfCampaigns = 0;\n\n    function createCampaign(address _owner, string memory _title, string memory _description, uint256 _target, uint256 _deadline, string memory _image) public returns (uint256) {\n        Campaign storage campaign = campaigns[numberOfCampaigns];\n\n        require(campaign.deadline < block.timestamp, \"The deadline should be a date in the future.\");\n\n        campaign.owner = _owner;\n        campaign.title = _title;\n        campaign.description = _description;\n        campaign.target = _target;\n        campaign.deadline = _deadline;\n        campaign.amountCollected = 0;\n        campaign.image = _image;\n\n        numberOfCampaigns++;\n\n        return numberOfCampaigns - 1;\n    }\n\n    function donateToCampaign(uint256 _id) public payable {\n        uint256 amount = msg.value;\n\n        Campaign storage campaign = campaigns[_id];\n\n        campaign.donators.push(msg.sender);\n        campaign.donations.push(amount);\n\n        (bool sent,) = payable(campaign.owner).call{value: amount}(\"\");\n\n        if(sent) {\n            campaign.amountCollected = campaign.amountCollected + amount;\n        }\n    }\n\n    function getDonators(uint256 _id) view public returns (address[] memory, uint256[] memory) {\n        return (campaigns[_id].donators, campaigns[_id].donations);\n    }\n\n    function getNumOfComaigns() view public returns (uint256) {\n        return numberOfCampaigns;\n    }\n\n    function getCampaigns() public view returns (Campaign[] memory) {\n        Campaign[] memory allCampaigns = new Campaign[](numberOfCampaigns);\n\n        for(uint i = 0; i < numberOfCampaigns; i++) {\n            Campaign storage item = campaigns[i];\n\n            allCampaigns[i] = item;\n        }\n\n        return allCampaigns;\n    }\n}",
  "sourcePath": "/home/max/Documents/uni/blockchain/crowdfunding-dapp/contracts/Crowdfunding.sol",
  "compiler": {
    "name": "solc",
    "version": "0.8.11+commit.d7f03943.Emscripten.clang"
  },
  "schemaVersion": "3.4.4",
  "updatedAt": "2022-12-12T07:45:53.218Z",
  "networkType": "ethereum",
  "devdoc": {
    "kind": "dev",
    "methods": {},
    "version": 1
  },
  "userdoc": {
    "kind": "user",
    "methods": {},
    "version": 1
  }
}