{
  "contractName": "Crowdfunding",
  "abi": [
    {
      "inputs": [
        {
          "internalType": "uint256",
          "name": "",
          "type": "uint256"
        }
      ],
      "name": "campaigns",
      "outputs": [
        {
          "internalType": "uint256",
          "name": "id",
          "type": "uint256"
        },
        {
          "internalType": "address payable",
          "name": "owner",
          "type": "address"
        },
        {
          "internalType": "string",
          "name": "title",
          "type": "string"
        },
        {
          "internalType": "string",
          "name": "description",
          "type": "string"
        },
        {
          "internalType": "uint256",
          "name": "target",
          "type": "uint256"
        },
        {
          "internalType": "uint256",
          "name": "endDate",
          "type": "uint256"
        },
        {
          "internalType": "uint256",
          "name": "collected",
          "type": "uint256"
        },
        {
          "internalType": "string",
          "name": "image",
          "type": "string"
        },
        {
          "internalType": "bool",
          "name": "isCompleted",
          "type": "bool"
        }
      ],
      "stateMutability": "view",
      "type": "function",
      "constant": true
    },
    {
      "inputs": [],
      "name": "numberOfCampaigns",
      "outputs": [
        {
          "internalType": "uint256",
          "name": "",
          "type": "uint256"
        }
      ],
      "stateMutability": "view",
      "type": "function",
      "constant": true
    },
    {
      "inputs": [
        {
          "internalType": "address payable",
          "name": "_owner",
          "type": "address"
        },
        {
          "internalType": "string",
          "name": "_title",
          "type": "string"
        },
        {
          "internalType": "string",
          "name": "_description",
          "type": "string"
        },
        {
          "internalType": "uint256",
          "name": "_target",
          "type": "uint256"
        },
        {
          "internalType": "uint256",
          "name": "_endDate",
          "type": "uint256"
        },
        {
          "internalType": "string",
          "name": "_image",
          "type": "string"
        }
      ],
      "name": "createCampaign",
      "outputs": [
        {
          "internalType": "uint256",
          "name": "",
          "type": "uint256"
        }
      ],
      "stateMutability": "nonpayable",
      "type": "function"
    },
    {
      "inputs": [
        {
          "internalType": "uint256",
          "name": "_id",
          "type": "uint256"
        },
        {
          "internalType": "uint256",
          "name": "_timestamp",
          "type": "uint256"
        }
      ],
      "name": "campaignExpired",
      "outputs": [],
      "stateMutability": "nonpayable",
      "type": "function"
    },
    {
      "inputs": [
        {
          "internalType": "uint256",
          "name": "_id",
          "type": "uint256"
        },
        {
          "internalType": "uint256",
          "name": "_timestamp",
          "type": "uint256"
        }
      ],
      "name": "timeUntilExpiration",
      "outputs": [
        {
          "internalType": "uint256",
          "name": "",
          "type": "uint256"
        }
      ],
      "stateMutability": "view",
      "type": "function",
      "constant": true
    },
    {
      "inputs": [],
      "name": "getBlockTimestamp",
      "outputs": [
        {
          "internalType": "uint256",
          "name": "",
          "type": "uint256"
        }
      ],
      "stateMutability": "view",
      "type": "function",
      "constant": true
    },
    {
      "inputs": [],
      "name": "totalCompaigns",
      "outputs": [
        {
          "internalType": "uint256",
          "name": "",
          "type": "uint256"
        }
      ],
      "stateMutability": "view",
      "type": "function",
      "constant": true
    },
    {
      "inputs": [
        {
          "internalType": "uint256",
          "name": "_id",
          "type": "uint256"
        }
      ],
      "name": "donateToCampaign",
      "outputs": [],
      "stateMutability": "payable",
      "type": "function",
      "payable": true
    },
    {
      "inputs": [
        {
          "internalType": "uint256",
          "name": "_id",
          "type": "uint256"
        }
      ],
      "name": "getDonators",
      "outputs": [
        {
          "internalType": "address[]",
          "name": "",
          "type": "address[]"
        },
        {
          "internalType": "uint256[]",
          "name": "",
          "type": "uint256[]"
        }
      ],
      "stateMutability": "view",
      "type": "function",
      "constant": true
    },
    {
      "inputs": [],
      "name": "getCampaigns",
      "outputs": [
        {
          "components": [
            {
              "internalType": "uint256",
              "name": "id",
              "type": "uint256"
            },
            {
              "internalType": "address payable",
              "name": "owner",
              "type": "address"
            },
            {
              "internalType": "string",
              "name": "title",
              "type": "string"
            },
            {
              "internalType": "string",
              "name": "description",
              "type": "string"
            },
            {
              "internalType": "uint256",
              "name": "target",
              "type": "uint256"
            },
            {
              "internalType": "uint256",
              "name": "endDate",
              "type": "uint256"
            },
            {
              "internalType": "uint256",
              "name": "collected",
              "type": "uint256"
            },
            {
              "internalType": "string",
              "name": "image",
              "type": "string"
            },
            {
              "internalType": "address[]",
              "name": "backers",
              "type": "address[]"
            },
            {
              "internalType": "uint256[]",
              "name": "donations",
              "type": "uint256[]"
            },
            {
              "internalType": "bool",
              "name": "isCompleted",
              "type": "bool"
            }
          ],
          "internalType": "struct Crowdfunding.Campaign[]",
          "name": "",
          "type": "tuple[]"
        }
      ],
      "stateMutability": "view",
      "type": "function",
      "constant": true
    }
  ],
  "bytecode": "0x6080604052600060015534801561001557600080fd5b5061191e806100256000396000f3fe6080604052600436106100915760003560e01c8063796b89b911610059578063796b89b91461018b5780639943e3a1146101b6578063a6b03633146101f3578063ba8688561461021e578063bdb6e69c1461024757610091565b806307ca140d14610096578063091e3e7d146100c15780630fa91fa9146100ec578063141961bc1461012a57806342a4fda81461016f575b600080fd5b3480156100a257600080fd5b506100ab610284565b6040516100b89190610dbb565b60405180910390f35b3480156100cd57600080fd5b506100d661028a565b6040516100e39190610dbb565b60405180910390f35b3480156100f857600080fd5b50610113600480360381019061010e9190610e16565b610294565b604051610121929190610ff1565b60405180910390f35b34801561013657600080fd5b50610151600480360381019061014c9190610e16565b6103a4565b604051610166999897969594939291906110fd565b60405180910390f35b61018960048036038101906101849190610e16565b6105b7565b005b34801561019757600080fd5b506101a06106ed565b6040516101ad9190610dbb565b60405180910390f35b3480156101c257600080fd5b506101dd60048036038101906101d89190611300565b6106f5565b6040516101ea9190610dbb565b60405180910390f35b3480156101ff57600080fd5b5061020861081e565b60405161021591906116f4565b60405180910390f35b34801561022a57600080fd5b5061024560048036038101906102409190611716565b610c19565b005b34801561025357600080fd5b5061026e60048036038101906102699190611716565b610c5d565b60405161027b9190610dbb565b60405180910390f35b60015481565b6000600154905090565b6060806000808481526020019081526020016000206008016000808581526020019081526020016000206009018180548060200260200160405190810160405280929190818152602001828054801561034257602002820191906000526020600020905b8160009054906101000a900473ffffffffffffffffffffffffffffffffffffffff1673ffffffffffffffffffffffffffffffffffffffff16815260200190600101908083116102f8575b505050505091508080548060200260200160405190810160405280929190818152602001828054801561039457602002820191906000526020600020905b815481526020019060010190808311610380575b5050505050905091509150915091565b60006020528060005260406000206000915090508060000154908060010160009054906101000a900473ffffffffffffffffffffffffffffffffffffffff16908060020180546103f390611785565b80601f016020809104026020016040519081016040528092919081815260200182805461041f90611785565b801561046c5780601f106104415761010080835404028352916020019161046c565b820191906000526020600020905b81548152906001019060200180831161044f57829003601f168201915b50505050509080600301805461048190611785565b80601f01602080910402602001604051908101604052809291908181526020018280546104ad90611785565b80156104fa5780601f106104cf576101008083540402835291602001916104fa565b820191906000526020600020905b8154815290600101906020018083116104dd57829003601f168201915b50505050509080600401549080600501549080600601549080600701805461052190611785565b80601f016020809104026020016040519081016040528092919081815260200182805461054d90611785565b801561059a5780601f1061056f5761010080835404028352916020019161059a565b820191906000526020600020905b81548152906001019060200180831161057d57829003601f168201915b50505050509080600a0160009054906101000a900460ff16905089565b60003490506000806000848152602001908152602001600020905080600801339080600181540180825580915050600190039060005260206000200160009091909190916101000a81548173ffffffffffffffffffffffffffffffffffffffff021916908373ffffffffffffffffffffffffffffffffffffffff160217905550806009018290806001815401808255809150506001900390600052602060002001600090919091909150558060010160009054906101000a900473ffffffffffffffffffffffffffffffffffffffff1673ffffffffffffffffffffffffffffffffffffffff166108fc839081150290604051600060405180830381858888f193505050501580156106cc573d6000803e3d6000fd5b50818160060160008282546106e191906117e6565b92505081905550505050565b600042905090565b600080600080600154815260200190815260200160002090506001548160000181905550878160010160006101000a81548173ffffffffffffffffffffffffffffffffffffffff021916908373ffffffffffffffffffffffffffffffffffffffff16021790555086816002019080519060200190610774929190610c8d565b508581600301908051906020019061078d929190610c8d565b5084816004018190555083426107a391906117e6565b816005018190555060008160060181905550828160070190805190602001906107cd929190610c8d565b50600081600a0160006101000a81548160ff021916908315150217905550600160008154809291906107fe9061183c565b9190505550600180546108119190611885565b9150509695505050505050565b6060600060015467ffffffffffffffff81111561083e5761083d6111d5565b5b60405190808252806020026020018201604052801561087757816020015b610864610d13565b81526020019060019003908161085c5790505b50905060005b600154811015610c1157600080600083815260200190815260200160002090508060405180610160016040529081600082015481526020016001820160009054906101000a900473ffffffffffffffffffffffffffffffffffffffff1673ffffffffffffffffffffffffffffffffffffffff1673ffffffffffffffffffffffffffffffffffffffff16815260200160028201805461091a90611785565b80601f016020809104026020016040519081016040528092919081815260200182805461094690611785565b80156109935780601f1061096857610100808354040283529160200191610993565b820191906000526020600020905b81548152906001019060200180831161097657829003601f168201915b505050505081526020016003820180546109ac90611785565b80601f01602080910402602001604051908101604052809291908181526020018280546109d890611785565b8015610a255780601f106109fa57610100808354040283529160200191610a25565b820191906000526020600020905b815481529060010190602001808311610a0857829003601f168201915b50505050508152602001600482015481526020016005820154815260200160068201548152602001600782018054610a5c90611785565b80601f0160208091040260200160405190810160405280929190818152602001828054610a8890611785565b8015610ad55780601f10610aaa57610100808354040283529160200191610ad5565b820191906000526020600020905b815481529060010190602001808311610ab857829003601f168201915b5050505050815260200160088201805480602002602001604051908101604052809291908181526020018280548015610b6357602002820191906000526020600020905b8160009054906101000a900473ffffffffffffffffffffffffffffffffffffffff1673ffffffffffffffffffffffffffffffffffffffff1681526020019060010190808311610b19575b5050505050815260200160098201805480602002602001604051908101604052809291908181526020018280548015610bbb57602002820191906000526020600020905b815481526020019060010190808311610ba7575b50505050508152602001600a820160009054906101000a900460ff161515151581525050838381518110610bf257610bf16118b9565b5b6020026020010181905250508080610c099061183c565b91505061087d565b508091505090565b6000806000848152602001908152602001600020905080600501548210610c5857600181600a0160006101000a81548160ff0219169083151502179055505b505050565b6000806000808581526020019081526020016000209050828160050154610c849190611885565b91505092915050565b828054610c9990611785565b90600052602060002090601f016020900481019282610cbb5760008555610d02565b82601f10610cd457805160ff1916838001178555610d02565b82800160010185558215610d02579182015b82811115610d01578251825591602001919060010190610ce6565b5b509050610d0f9190610d85565b5090565b60405180610160016040528060008152602001600073ffffffffffffffffffffffffffffffffffffffff16815260200160608152602001606081526020016000815260200160008152602001600081526020016060815260200160608152602001606081526020016000151581525090565b5b80821115610d9e576000816000905550600101610d86565b5090565b6000819050919050565b610db581610da2565b82525050565b6000602082019050610dd06000830184610dac565b92915050565b6000604051905090565b600080fd5b600080fd5b610df381610da2565b8114610dfe57600080fd5b50565b600081359050610e1081610dea565b92915050565b600060208284031215610e2c57610e2b610de0565b5b6000610e3a84828501610e01565b91505092915050565b600081519050919050565b600082825260208201905092915050565b6000819050602082019050919050565b600073ffffffffffffffffffffffffffffffffffffffff82169050919050565b6000610e9a82610e6f565b9050919050565b610eaa81610e8f565b82525050565b6000610ebc8383610ea1565b60208301905092915050565b6000602082019050919050565b6000610ee082610e43565b610eea8185610e4e565b9350610ef583610e5f565b8060005b83811015610f26578151610f0d8882610eb0565b9750610f1883610ec8565b925050600181019050610ef9565b5085935050505092915050565b600081519050919050565b600082825260208201905092915050565b6000819050602082019050919050565b610f6881610da2565b82525050565b6000610f7a8383610f5f565b60208301905092915050565b6000602082019050919050565b6000610f9e82610f33565b610fa88185610f3e565b9350610fb383610f4f565b8060005b83811015610fe4578151610fcb8882610f6e565b9750610fd683610f86565b925050600181019050610fb7565b5085935050505092915050565b6000604082019050818103600083015261100b8185610ed5565b9050818103602083015261101f8184610f93565b90509392505050565b600061103382610e6f565b9050919050565b61104381611028565b82525050565b600081519050919050565b600082825260208201905092915050565b60005b83811015611083578082015181840152602081019050611068565b83811115611092576000848401525b50505050565b6000601f19601f8301169050919050565b60006110b482611049565b6110be8185611054565b93506110ce818560208601611065565b6110d781611098565b840191505092915050565b60008115159050919050565b6110f7816110e2565b82525050565b600061012082019050611113600083018c610dac565b611120602083018b61103a565b8181036040830152611132818a6110a9565b9050818103606083015261114681896110a9565b90506111556080830188610dac565b61116260a0830187610dac565b61116f60c0830186610dac565b81810360e083015261118181856110a9565b90506111916101008301846110ee565b9a9950505050505050505050565b6111a881611028565b81146111b357600080fd5b50565b6000813590506111c58161119f565b92915050565b600080fd5b600080fd5b7f4e487b7100000000000000000000000000000000000000000000000000000000600052604160045260246000fd5b61120d82611098565b810181811067ffffffffffffffff8211171561122c5761122b6111d5565b5b80604052505050565b600061123f610dd6565b905061124b8282611204565b919050565b600067ffffffffffffffff82111561126b5761126a6111d5565b5b61127482611098565b9050602081019050919050565b82818337600083830152505050565b60006112a361129e84611250565b611235565b9050828152602081018484840111156112bf576112be6111d0565b5b6112ca848285611281565b509392505050565b600082601f8301126112e7576112e66111cb565b5b81356112f7848260208601611290565b91505092915050565b60008060008060008060c0878903121561131d5761131c610de0565b5b600061132b89828a016111b6565b965050602087013567ffffffffffffffff81111561134c5761134b610de5565b5b61135889828a016112d2565b955050604087013567ffffffffffffffff81111561137957611378610de5565b5b61138589828a016112d2565b945050606061139689828a01610e01565b93505060806113a789828a01610e01565b92505060a087013567ffffffffffffffff8111156113c8576113c7610de5565b5b6113d489828a016112d2565b9150509295509295509295565b600081519050919050565b600082825260208201905092915050565b6000819050602082019050919050565b61141681611028565b82525050565b600082825260208201905092915050565b600061143882611049565b611442818561141c565b9350611452818560208601611065565b61145b81611098565b840191505092915050565b600082825260208201905092915050565b600061148282610e43565b61148c8185611466565b935061149783610e5f565b8060005b838110156114c85781516114af8882610eb0565b97506114ba83610ec8565b92505060018101905061149b565b5085935050505092915050565b600082825260208201905092915050565b60006114f182610f33565b6114fb81856114d5565b935061150683610f4f565b8060005b8381101561153757815161151e8882610f6e565b975061152983610f86565b92505060018101905061150a565b5085935050505092915050565b61154d816110e2565b82525050565b60006101608301600083015161156c6000860182610f5f565b50602083015161157f602086018261140d565b5060408301518482036040860152611597828261142d565b915050606083015184820360608601526115b1828261142d565b91505060808301516115c66080860182610f5f565b5060a08301516115d960a0860182610f5f565b5060c08301516115ec60c0860182610f5f565b5060e083015184820360e0860152611604828261142d565b9150506101008301518482036101008601526116208282611477565b91505061012083015184820361012086015261163c82826114e6565b915050610140830151611653610140860182611544565b508091505092915050565b600061166a8383611553565b905092915050565b6000602082019050919050565b600061168a826113e1565b61169481856113ec565b9350836020820285016116a6856113fd565b8060005b858110156116e257848403895281516116c3858261165e565b94506116ce83611672565b925060208a019950506001810190506116aa565b50829750879550505050505092915050565b6000602082019050818103600083015261170e818461167f565b905092915050565b6000806040838503121561172d5761172c610de0565b5b600061173b85828601610e01565b925050602061174c85828601610e01565b9150509250929050565b7f4e487b7100000000000000000000000000000000000000000000000000000000600052602260045260246000fd5b6000600282049050600182168061179d57607f821691505b602082108114156117b1576117b0611756565b5b50919050565b7f4e487b7100000000000000000000000000000000000000000000000000000000600052601160045260246000fd5b60006117f182610da2565b91506117fc83610da2565b9250827fffffffffffffffffffffffffffffffffffffffffffffffffffffffffffffffff03821115611831576118306117b7565b5b828201905092915050565b600061184782610da2565b91507fffffffffffffffffffffffffffffffffffffffffffffffffffffffffffffffff82141561187a576118796117b7565b5b600182019050919050565b600061189082610da2565b915061189b83610da2565b9250828210156118ae576118ad6117b7565b5b828203905092915050565b7f4e487b7100000000000000000000000000000000000000000000000000000000600052603260045260246000fdfea2646970667358221220d513cb7f7effdcc2eaee20788c527cd310c054d0a5c465661507fb9d43739a8064736f6c634300080b0033",
  "immutableReferences": {},
  "source": "// SPDX-License-Identifier: UNLICENSED\npragma solidity ^0.8.9;\n\n\ncontract Crowdfunding {\n    struct Campaign {\n        uint256 id;\n        address payable owner;\n        string title;\n        string description;\n        uint256 target;\n        uint endDate;\n        uint256 collected;\n        string image;\n        address[] backers;\n        uint256[] donations;\n        bool isCompleted;\n    }\n\n    mapping(uint256 => Campaign) public campaigns;\n\n    uint256 public numberOfCampaigns = 0;\n\n    function createCampaign(address payable _owner,\n     string memory _title, string memory _description,\n     uint256 _target, uint _endDate, string memory _image) public returns (uint256) {\n        Campaign storage campaign = campaigns[numberOfCampaigns];\n\n        campaign.id = numberOfCampaigns;\n        campaign.owner = _owner;\n        campaign.title = _title;\n        campaign.description = _description;\n        campaign.target = _target;\n        campaign.endDate = block.timestamp + _endDate;\n        campaign.collected = 0;\n        campaign.image = _image;\n        campaign.isCompleted = false;\n\n        numberOfCampaigns++;\n\n        return numberOfCampaigns - 1;\n    }\n\n    function campaignExpired(uint256 _id, uint _timestamp) public {\n        Campaign storage campaign = campaigns[_id];\n\n          if(_timestamp >= campaign.endDate) {\n             campaign.isCompleted = true;\n        }\n    }\n\n    function timeUntilExpiration(uint256 _id, uint _timestamp) view public returns (uint256){\n        Campaign storage campaign = campaigns[_id];\n        \n        // if(campaign.isCompleted) {\n        //     return 0;\n        // }\n\n        return campaign.endDate - _timestamp;\n    }\n\n    function getBlockTimestamp() view public returns (uint256) {\n        return block.timestamp;\n    }\n\n    function totalCompaigns() view public returns (uint256) {\n        return numberOfCampaigns;\n    }\n\n    function donateToCampaign(uint256 _id) public payable {\n        uint256 amount = msg.value;\n\n        Campaign storage campaign = campaigns[_id];\n\n        campaign.backers.push(msg.sender);\n        campaign.donations.push(amount);\n\n        campaign.owner.transfer(amount);\n\n        campaign.collected += amount;\n    }\n\n    function getDonators(uint256 _id) view public returns (address[] memory, uint256[] memory) {\n        return (campaigns[_id].backers, campaigns[_id].donations);\n    }\n\n    function getCampaigns() public view returns (Campaign[] memory) {\n        Campaign[] memory allCampaigns = new Campaign[](numberOfCampaigns);\n\n        for(uint i = 0; i < numberOfCampaigns; i++) {\n            Campaign storage item = campaigns[i];\n\n            allCampaigns[i] = item;\n        }\n\n        return allCampaigns;\n    }\n}",
  "sourcePath": "/home/max/Documents/uni/blockchain/crowdfunding-dapp/contracts/Crowdfunding.sol",
  "compiler": {
    "name": "solc",
    "version": "0.8.11+commit.d7f03943.Emscripten.clang"
  },
  "schemaVersion": "3.4.4",
  "updatedAt": "2022-12-12T19:21:03.051Z",
  "networkType": "ethereum",
  "devdoc": {
    "kind": "dev",
    "methods": {},
    "version": 1
  },
  "userdoc": {
    "kind": "user",
    "methods": {},
    "version": 1
  }
}