{
  "contractName": "Pool",
  "abi": [
    {
      "inputs": [],
      "name": "campaignsCount",
      "outputs": [
        {
          "internalType": "uint256",
          "name": "",
          "type": "uint256"
        }
      ],
      "stateMutability": "view",
      "type": "function",
      "constant": true
    },
    {
      "inputs": [
        {
          "internalType": "address payable",
          "name": "owner",
          "type": "address"
        },
        {
          "internalType": "string",
          "name": "title",
          "type": "string"
        },
        {
          "internalType": "string",
          "name": "description",
          "type": "string"
        },
        {
          "internalType": "uint256",
          "name": "target",
          "type": "uint256"
        },
        {
          "internalType": "uint256",
          "name": "endDate",
          "type": "uint256"
        },
        {
          "internalType": "string",
          "name": "url",
          "type": "string"
        }
      ],
      "name": "createCampaign",
      "outputs": [],
      "stateMutability": "nonpayable",
      "type": "function"
    },
    {
      "inputs": [],
      "name": "getCampaigns",
      "outputs": [
        {
          "internalType": "contract Campaign[]",
          "name": "allCampaigns",
          "type": "address[]"
        }
      ],
      "stateMutability": "view",
      "type": "function",
      "constant": true
    }
  ],
  "bytecode": "0x608060405234801561001057600080fd5b50611ba7806100206000396000f3fe60806040523480156200001157600080fd5b5060043610620000465760003560e01c806344c89b65146200004b5780639943e3a1146200006d578063a6b03633146200008d575b600080fd5b62000055620000af565b604051620000649190620002af565b60405180910390f35b6200008b6004803603810190620000859190620004d8565b620000bb565b005b620000976200016e565b604051620000a69190620006f9565b60405180910390f35b60008080549050905090565b6000868686868686604051620000d19062000286565b620000e296959493929190620007c1565b604051809103906000f080158015620000ff573d6000803e3d6000fd5b5090506000819080600181540180825580915050600190039060005260206000200160009091909190916101000a81548173ffffffffffffffffffffffffffffffffffffffff021916908373ffffffffffffffffffffffffffffffffffffffff16021790555050505050505050565b606060006200017c620000af565b90508067ffffffffffffffff8111156200019b576200019a62000360565b5b604051908082528060200260200182016040528015620001ca5781602001602082028036833780820191505090505b50915060005b81811015620002815760008181548110620001f057620001ef62000843565b5b9060005260206000200160009054906101000a900473ffffffffffffffffffffffffffffffffffffffff1683828151811062000231576200023062000843565b5b602002602001019073ffffffffffffffffffffffffffffffffffffffff16908173ffffffffffffffffffffffffffffffffffffffff168152505080806200027890620008a1565b915050620001d0565b505090565b61128280620008f083390190565b6000819050919050565b620002a98162000294565b82525050565b6000602082019050620002c660008301846200029e565b92915050565b6000604051905090565b600080fd5b600080fd5b600073ffffffffffffffffffffffffffffffffffffffff82169050919050565b60006200030d82620002e0565b9050919050565b6200031f8162000300565b81146200032b57600080fd5b50565b6000813590506200033f8162000314565b92915050565b600080fd5b600080fd5b6000601f19601f8301169050919050565b7f4e487b7100000000000000000000000000000000000000000000000000000000600052604160045260246000fd5b6200039a826200034f565b810181811067ffffffffffffffff82111715620003bc57620003bb62000360565b5b80604052505050565b6000620003d1620002cc565b9050620003df82826200038f565b919050565b600067ffffffffffffffff82111562000402576200040162000360565b5b6200040d826200034f565b9050602081019050919050565b82818337600083830152505050565b6000620004406200043a84620003e4565b620003c5565b9050828152602081018484840111156200045f576200045e6200034a565b5b6200046c8482856200041a565b509392505050565b600082601f8301126200048c576200048b62000345565b5b81356200049e84826020860162000429565b91505092915050565b620004b28162000294565b8114620004be57600080fd5b50565b600081359050620004d281620004a7565b92915050565b60008060008060008060c08789031215620004f857620004f7620002d6565b5b60006200050889828a016200032e565b965050602087013567ffffffffffffffff8111156200052c576200052b620002db565b5b6200053a89828a0162000474565b955050604087013567ffffffffffffffff8111156200055e576200055d620002db565b5b6200056c89828a0162000474565b94505060606200057f89828a01620004c1565b93505060806200059289828a01620004c1565b92505060a087013567ffffffffffffffff811115620005b657620005b5620002db565b5b620005c489828a0162000474565b9150509295509295509295565b600081519050919050565b600082825260208201905092915050565b6000819050602082019050919050565b6000819050919050565b600062000628620006226200061c84620002e0565b620005fd565b620002e0565b9050919050565b60006200063c8262000607565b9050919050565b600062000650826200062f565b9050919050565b620006628162000643565b82525050565b600062000676838362000657565b60208301905092915050565b6000602082019050919050565b60006200069c82620005d1565b620006a88185620005dc565b9350620006b583620005ed565b8060005b83811015620006ec578151620006d0888262000668565b9750620006dd8362000682565b925050600181019050620006b9565b5085935050505092915050565b600060208201905081810360008301526200071581846200068f565b905092915050565b620007288162000300565b82525050565b600081519050919050565b600082825260208201905092915050565b60005b838110156200076a5780820151818401526020810190506200074d565b838111156200077a576000848401525b50505050565b60006200078d826200072e565b62000799818562000739565b9350620007ab8185602086016200074a565b620007b6816200034f565b840191505092915050565b600060c082019050620007d860008301896200071d565b8181036020830152620007ec818862000780565b9050818103604083015262000802818762000780565b90506200081360608301866200029e565b6200082260808301856200029e565b81810360a083015262000836818462000780565b9050979650505050505050565b7f4e487b7100000000000000000000000000000000000000000000000000000000600052603260045260246000fd5b7f4e487b7100000000000000000000000000000000000000000000000000000000600052601160045260246000fd5b6000620008ae8262000294565b91507fffffffffffffffffffffffffffffffffffffffffffffffffffffffffffffffff821415620008e457620008e362000872565b5b60018201905091905056fe60806040526000600960006101000a81548160ff0219169083151502179055503480156200002c57600080fd5b5060405162001282380380620012828339818101604052810190620000529190620003f9565b856000806101000a81548173ffffffffffffffffffffffffffffffffffffffff021916908373ffffffffffffffffffffffffffffffffffffffff1602179055508460019080519060200190620000aa9291906200010c565b508360029080519060200190620000c39291906200010c565b50826003819055508142620000d9919062000521565b60048190555060006005819055508060069080519060200190620000ff9291906200010c565b50505050505050620005e3565b8280546200011a90620005ad565b90600052602060002090601f0160209004810192826200013e57600085556200018a565b82601f106200015957805160ff19168380011785556200018a565b828001600101855582156200018a579182015b82811115620001895782518255916020019190600101906200016c565b5b5090506200019991906200019d565b5090565b5b80821115620001b85760008160009055506001016200019e565b5090565b6000604051905090565b600080fd5b600080fd5b600073ffffffffffffffffffffffffffffffffffffffff82169050919050565b6000620001fd82620001d0565b9050919050565b6200020f81620001f0565b81146200021b57600080fd5b50565b6000815190506200022f8162000204565b92915050565b600080fd5b600080fd5b6000601f19601f8301169050919050565b7f4e487b7100000000000000000000000000000000000000000000000000000000600052604160045260246000fd5b6200028a826200023f565b810181811067ffffffffffffffff82111715620002ac57620002ab62000250565b5b80604052505050565b6000620002c1620001bc565b9050620002cf82826200027f565b919050565b600067ffffffffffffffff821115620002f257620002f162000250565b5b620002fd826200023f565b9050602081019050919050565b60005b838110156200032a5780820151818401526020810190506200030d565b838111156200033a576000848401525b50505050565b6000620003576200035184620002d4565b620002b5565b9050828152602081018484840111156200037657620003756200023a565b5b620003838482856200030a565b509392505050565b600082601f830112620003a357620003a262000235565b5b8151620003b584826020860162000340565b91505092915050565b6000819050919050565b620003d381620003be565b8114620003df57600080fd5b50565b600081519050620003f381620003c8565b92915050565b60008060008060008060c08789031215620004195762000418620001c6565b5b60006200042989828a016200021e565b965050602087015167ffffffffffffffff8111156200044d576200044c620001cb565b5b6200045b89828a016200038b565b955050604087015167ffffffffffffffff8111156200047f576200047e620001cb565b5b6200048d89828a016200038b565b9450506060620004a089828a01620003e2565b9350506080620004b389828a01620003e2565b92505060a087015167ffffffffffffffff811115620004d757620004d6620001cb565b5b620004e589828a016200038b565b9150509295509295509295565b7f4e487b7100000000000000000000000000000000000000000000000000000000600052601160045260246000fd5b60006200052e82620003be565b91506200053b83620003be565b9250827fffffffffffffffffffffffffffffffffffffffffffffffffffffffffffffffff03821115620005735762000572620004f2565b5b828201905092915050565b7f4e487b7100000000000000000000000000000000000000000000000000000000600052602260045260246000fd5b60006002820490506001821680620005c657607f821691505b60208210811415620005dd57620005dc6200057e565b5b50919050565b610c8f80620005f36000396000f3fe6080604052600436106100dd5760003560e01c80638da5cb5b1161007f578063e25f841611610059578063e25f84161461025b578063e9d8002014610286578063f8626af8146102c3578063fa391c6414610300576100dd565b80638da5cb5b146101da578063c24a0f8b14610205578063d4b8399214610230576100dd565b80634a79d50c116100bb5780634a79d50c1461012e5780635600f04f146101595780637284e4161461018457806384bcefd4146101af576100dd565b80630e1da6c3146100e25780632ef6da00146100f957806330f3e3da14610103575b600080fd5b3480156100ee57600080fd5b506100f761032b565b005b610101610348565b005b34801561010f57600080fd5b5061011861045c565b6040516101259190610888565b60405180910390f35b34801561013a57600080fd5b506101436104ea565b6040516101509190610943565b60405180910390f35b34801561016557600080fd5b5061016e610578565b60405161017b9190610943565b60405180910390f35b34801561019057600080fd5b50610199610606565b6040516101a69190610943565b60405180910390f35b3480156101bb57600080fd5b506101c4610694565b6040516101d1919061097e565b60405180910390f35b3480156101e657600080fd5b506101ef61069a565b6040516101fc91906109ba565b60405180910390f35b34801561021157600080fd5b5061021a6106be565b604051610227919061097e565b60405180910390f35b34801561023c57600080fd5b506102456106c4565b604051610252919061097e565b60405180910390f35b34801561026757600080fd5b506102706106ca565b60405161027d9190610a93565b60405180910390f35b34801561029257600080fd5b506102ad60048036038101906102a89190610ae6565b610722565b6040516102ba9190610b22565b60405180910390f35b3480156102cf57600080fd5b506102ea60048036038101906102e59190610ae6565b610761565b6040516102f7919061097e565b60405180910390f35b34801561030c57600080fd5b50610315610785565b6040516103229190610b58565b60405180910390f35b6001600960006101000a81548160ff021916908315150217905550565b60003490506007339080600181540180825580915050600190039060005260206000200160009091909190916101000a81548173ffffffffffffffffffffffffffffffffffffffff021916908373ffffffffffffffffffffffffffffffffffffffff160217905550600881908060018154018082558091505060019003906000526020600020016000909190919091505560008054906101000a900473ffffffffffffffffffffffffffffffffffffffff1673ffffffffffffffffffffffffffffffffffffffff166108fc829081150290604051600060405180830381858888f1935050505015801561043f573d6000803e3d6000fd5b5080600560008282546104529190610ba2565b9250508190555050565b606060078054806020026020016040519081016040528092919081815260200182805480156104e057602002820191906000526020600020905b8160009054906101000a900473ffffffffffffffffffffffffffffffffffffffff1673ffffffffffffffffffffffffffffffffffffffff1681526020019060010190808311610496575b5050505050905090565b600180546104f790610c27565b80601f016020809104026020016040519081016040528092919081815260200182805461052390610c27565b80156105705780601f1061054557610100808354040283529160200191610570565b820191906000526020600020905b81548152906001019060200180831161055357829003601f168201915b505050505081565b6006805461058590610c27565b80601f01602080910402602001604051908101604052809291908181526020018280546105b190610c27565b80156105fe5780601f106105d3576101008083540402835291602001916105fe565b820191906000526020600020905b8154815290600101906020018083116105e157829003601f168201915b505050505081565b6002805461061390610c27565b80601f016020809104026020016040519081016040528092919081815260200182805461063f90610c27565b801561068c5780601f106106615761010080835404028352916020019161068c565b820191906000526020600020905b81548152906001019060200180831161066f57829003601f168201915b505050505081565b60055481565b60008054906101000a900473ffffffffffffffffffffffffffffffffffffffff1681565b60045481565b60035481565b6060600880548060200260200160405190810160405280929190818152602001828054801561071857602002820191906000526020600020905b815481526020019060010190808311610704575b5050505050905090565b6007818154811061073257600080fd5b906000526020600020016000915054906101000a900473ffffffffffffffffffffffffffffffffffffffff1681565b6008818154811061077157600080fd5b906000526020600020016000915090505481565b600960009054906101000a900460ff1681565b600081519050919050565b600082825260208201905092915050565b6000819050602082019050919050565b600073ffffffffffffffffffffffffffffffffffffffff82169050919050565b60006107ef826107c4565b9050919050565b6107ff816107e4565b82525050565b600061081183836107f6565b60208301905092915050565b6000602082019050919050565b600061083582610798565b61083f81856107a3565b935061084a836107b4565b8060005b8381101561087b5781516108628882610805565b975061086d8361081d565b92505060018101905061084e565b5085935050505092915050565b600060208201905081810360008301526108a2818461082a565b905092915050565b600081519050919050565b600082825260208201905092915050565b60005b838110156108e45780820151818401526020810190506108c9565b838111156108f3576000848401525b50505050565b6000601f19601f8301169050919050565b6000610915826108aa565b61091f81856108b5565b935061092f8185602086016108c6565b610938816108f9565b840191505092915050565b6000602082019050818103600083015261095d818461090a565b905092915050565b6000819050919050565b61097881610965565b82525050565b6000602082019050610993600083018461096f565b92915050565b60006109a4826107c4565b9050919050565b6109b481610999565b82525050565b60006020820190506109cf60008301846109ab565b92915050565b600081519050919050565b600082825260208201905092915050565b6000819050602082019050919050565b610a0a81610965565b82525050565b6000610a1c8383610a01565b60208301905092915050565b6000602082019050919050565b6000610a40826109d5565b610a4a81856109e0565b9350610a55836109f1565b8060005b83811015610a86578151610a6d8882610a10565b9750610a7883610a28565b925050600181019050610a59565b5085935050505092915050565b60006020820190508181036000830152610aad8184610a35565b905092915050565b600080fd5b610ac381610965565b8114610ace57600080fd5b50565b600081359050610ae081610aba565b92915050565b600060208284031215610afc57610afb610ab5565b5b6000610b0a84828501610ad1565b91505092915050565b610b1c816107e4565b82525050565b6000602082019050610b376000830184610b13565b92915050565b60008115159050919050565b610b5281610b3d565b82525050565b6000602082019050610b6d6000830184610b49565b92915050565b7f4e487b7100000000000000000000000000000000000000000000000000000000600052601160045260246000fd5b6000610bad82610965565b9150610bb883610965565b9250827fffffffffffffffffffffffffffffffffffffffffffffffffffffffffffffffff03821115610bed57610bec610b73565b5b828201905092915050565b7f4e487b7100000000000000000000000000000000000000000000000000000000600052602260045260246000fd5b60006002820490506001821680610c3f57607f821691505b60208210811415610c5357610c52610bf8565b5b5091905056fea2646970667358221220d8882a283aead13c9d40b2de56547877ba519d05d3eb899dee1bdb709aadff5c64736f6c634300080b0033a26469706673582212201087da637236bb5abd63c50914178c29309af7ae880080c9b608281d5dc7df8264736f6c634300080b0033",
  "immutableReferences": {},
  "source": "// SPDX-License-Identifier: UNLICENSED\npragma solidity ^0.8.9;\n\nimport \"./Campaign.sol\";\n\ncontract Pool {\n    Campaign[] private _campaigns;\n\n    function campaignsCount () public view returns (uint256) {\n        return _campaigns.length;\n    }\n\n    function createCampaign (address payable owner, string memory title, string memory description, uint256 target, uint endDate, string memory url) public {\n        Campaign campaign = new Campaign (owner, title, description, target, endDate, url);\n        _campaigns.push(campaign);\n    }\n\n    function getCampaigns () public view returns (Campaign[] memory allCampaigns) {    \n        uint256 size = campaignsCount() ;\n        allCampaigns = new Campaign[](size);\n\n        for (uint256 i = 0; i < size; i++) {\n            allCampaigns[i] = _campaigns[i];\n        }\n\n        return allCampaigns;    \n    }\n\n}",
  "sourcePath": "/home/max/Documents/uni/blockchain/crowdfunding-dapp/contracts/Pool.sol",
  "compiler": {
    "name": "solc",
    "version": "0.8.11+commit.d7f03943.Emscripten.clang"
  },
  "schemaVersion": "3.4.4",
  "updatedAt": "2022-12-13T07:55:57.157Z",
  "networkType": "ethereum",
  "devdoc": {
    "kind": "dev",
    "methods": {},
    "version": 1
  },
  "userdoc": {
    "kind": "user",
    "methods": {},
    "version": 1
  }
}